:03000000020908EA
:0C090800787FE4F6D8FD75811A02094FD3
:0A0AF600C0F9A4B0999282F8809034
:060B0000011A0A011901AF
:100ADF00E4FEEEC39F500FE4FDE4FC0CBC14FC0DD0
:060AEF00BD19F60E80ECBB
:010AF50022DE
:060A1900E4FB7D05AF08BF
:060A1F008F098D0A8B0B0C
:100A2500780C7C007D007BFF7A0A79F67E007F0AD0
:100A35001208D0E50B7060E509C39400400EE50986
:100A4500D394635007E50AC39400500EE4F516E409
:100A5500F5A00516E516B428F622E4F516E516C345
:040A6500950A50336B
:100A6900E50975F00A8485F017E50975F00A84F53A
:100A79001875A011740C2518F8E6F5807F0C120A78
:0F0A8900DF75A022740C2517F8E6F580120ADF3E
:040A9800051680C6F9
:010A9C002237
:10099400E4F508D28CD2AFD2A9758921758CEEF515
:1009A4008AE519B40111D28E758920758BFD758D78
:1009B400FD759840E4F587E5196401702C20900AD0
:1009C4007599FE3099FDC29980ED20910A7599FDC3
:1009D4003099FDC29980E020920A7599FC3099FD06
:1009E400C29980D37599FF80CEE519B4FF0ED28EDB
:1009F400758BFD758DFD759850E4F587E519F470D8
:100A0400A0E599B4F0050508120A19E599B40FECAC
:050A1400120A1980E741
:03000B00020A9D49
:100A9D00C0E0C0F0C0D075D000C000C004C005C01B
:100AAD0006C007D51A1BC28D758CEE758A00AF195D
:100ABD00EF3395E0FE7CFF7DFF1208F68F19751A56
:100ACD000AD007D006D005D004D000D0D0D0F0D0B9
:020ADD00E03205
:10091400020994E493A3F8E493A34003F68001F25C
:1009240008DFF48029E493A3F85407240CC8C333E4
:10093400C4540F4420C8834004F456800146F6DFB3
:10094400E4800B0102040810204080900B00E47E38
:10095400019360BCA3FF543F30E509541FFEE493A8
:10096400A360010ECF54C025E060A840B8E493A36F
:10097400FAE493A3F8E493A3C8C582C8CAC583CA9A
:10098400F0A3C8C582C8CAC583CADFE9DEE780BE52
:010B060000EE
:10080000E709F608DFFA8046E709F208DFFA803EDA
:1008100088828C83E709F0A3DFFA8032E309F608C7
:10082000DFFA8078E309F208DFFA807088828C832F
:10083000E309F0A3DFFA806489828A83E0A3F608E3
:10084000DFFA805889828A83E0A3F208DFFA804CBD
:1008500080D280FA80C680D4806980F28033801094
:1008600080A680EA809A80A880DA80E280CA8033FD
:1008700089828A83ECFAE493A3C8C582C8CCC58375
:10088000CCF0A3C8C582C8CCC583CCDFE9DEE78045
:100890000D89828A83E493A3F608DFF9ECFAA9F0C4
:1008A000EDFB2289828A83ECFAE0A3C8C582C8CC1A
:1008B000C583CCF0A3C8C582C8CCC583CCDFEADE33
:1008C000E880DB89828A83E493A3F208DFF980CC95
:1008D00088F0EF60010E4E60C388F0ED2402B4048E
:1008E0000050B9F582EB2402B4040050AF23234535
:0608F00082239008507302
:1008F600EF8DF0A4A8F0CF8CF0A428CE8DF0A42E16
:02090600FE22CF
:00000001FF
