:0609410001090A01080192
:10088C00E4F50AD28CD2AFD2A9758921758CEEF51C
:10089C008AE508B40111D28E758BFD758DFD7589B5
:1008AC0020759850E4F587E508B401058599A0807A
:1008BC00F6E508B4FF0ED28E758BFD758DFD75981F
:1008CC0040E4F587E508B4FF1720900A7599F030DD
:1008DC0099FDC29980EE75990F3099FDC29980E40B
:0108EC0022E9
:03000B000208EDFB
:1008ED00C0E0C0F0C0D075D000C000C004C005C0CD
:1008FD0006C007D5091BC28D758CEE758A00AF0831
:10090D00EF3395E0FE7CFF7DFF12092F8F087509EF
:10091D000AD007D006D005D004D000D0D0D0F0D06A
:02092D00E032B6
:03000000020800F3
:0C080000787FE4F6D8FD75810A020847F5
:10092F00EF8DF0A4A8F0CF8CF0A428CE8DF0A42EDC
:02093F00FE2296
:10080C0002088CE493A3F8E493A34003F68001F26E
:10081C0008DFF48029E493A3F85407240CC8C333ED
:10082C00C4540F4420C8834004F456800146F6DFBC
:10083C00E4800B0102040810204080900941E47E02
:10084C00019360BCA3FF543F30E509541FFEE493B1
:10085C00A360010ECF54C025E060A840B8E493A378
:10086C00FAE493A3F8E493A3C8C582C8CAC583CAA3
:10087C00F0A3C8C582C8CAC583CADFE9DEE780BE5B
:0109470000AF
:00000001FF
