:03000000020003F8
:0C000300787FE4F6D8FD75810F02004AFA
:0A00CF000808A4C0C0A4F9C0A4A44E
:1000B400E4FFFEE4FDFC0DBD00010CEDF44C70F614
:0A00C4000FBF00010EEFF44E70E9CB
:0100CE00220F
:10008F00E4FBEBC394087480948050F474082BF84D
:10009F00E6F5901200B47590FF1200B4EB640A708D
:0500AF0001FB0B80DDE8
:10000F0002008FE493A3F8E493A34003F68001F278
:10001F0008DFF48029E493A3F85407240CC8C333F2
:10002F00C4540F4420C8834004F456800146F6DFC1
:10003F00E4800B01020408102040809000CFE47E82
:10004F00019360BCA3FF543F30E509541FFEE493B6
:10005F00A360010ECF54C025E060A840B8E493A37D
:10006F00FAE493A3F8E493A3C8C582C8CAC583CAA8
:10007F00F0A3C8C582C8CAC583CADFE9DEE780BE60
:0100D9000026
:00000001FF
