:03000000020003F8
:0C000300787FE4F6D8FD75811202004AF7
:0C013E000A083F065B4F666D7D077F6F6F
:10011F00E4FFEFC3940A748094805012E4FEEEC3A0
:0E012F00940A7480948050030E80F30F80E4D5
:01013D00229F
:10008F00EE705BEF14B4080050549000A775F003A6
:10009F00A4C58325F0C583730200BF0200C302000D
:1000AF00CB0200CF0200D70200DB0200E30200E721
:1000BF00D2A28002C2A2D2A3D2A48022D2A2800254
:1000CF00C2A2C2A3D2A48016D2A28002C2A2D2A37D
:1000DF00C2A4800AD2A28002C2A2C2A3C2A4740880
:0C00EF002DF8E6F58012011FE4F58022D8
:1000FB007B01EB7C00C39409748094805011EBFF5F
:10010B007E0024FFFDEC34FFFC12008F0B80E3120A
:04011B00011F80DC64
:10000F000200FBE493A3F8E493A34003F68001F20C
:10001F0008DFF48029E493A3F85407240CC8C333F2
:10002F00C4540F4420C8834004F456800146F6DFC1
:10003F00E4800B010204081020408090013EE47E12
:10004F00019360BCA3FF543F30E509541FFEE493B6
:10005F00A360010ECF54C025E060A840B8E493A37D
:10006F00FAE493A3F8E493A3C8C582C8CAC583CAA8
:10007F00F0A3C8C582C8CAC583CADFE9DEE780BE60
:01014A0000B4
:00000001FF
