:0C0006000A08C0F9A4B0999282F880901A
:0701820074082DF8E6F5807A
:0C018900E4FFE4FE0EBEFFFC0FBFFFF61B
:010195002247
:0B019600D288D28AD2AFD2A8D2AA220F
:1000A2007580FF759041E4FDE4FC75A001120182A8
:1000B20075A00274082C120185BD0215ECC39407C9
:1000C200400FE4F590120189759022120189E4F53E
:0F00D200900CBC0AD51201890DBD03CC7580FFBF
:0100E10022FC
:1000E2007580FF759014E4FDE4FC75A00412018292
:1000F20075A00874082C120185BD0215ECC3940783
:10010200400FE4F590120189759022120189E4F5FD
:0F011200900CBC0AD51201890DBD03CC7580FF7E
:0101210022BB
:0B01A1001201961200A21200E280F88A
:03000300020122D5
:0D012200C0E0C0D075D000C005C006C00709
:10012F007580FF759000E4FDD291120189C2911282
:08013F000189D2910DBD3CF0D5
:0B014700D007D006D005D0D0D0E032A9
:0300130002015295
:0D015200C0E0C0D075D000C005C006C007D9
:10015F007580FF759000E4FDD295120189C295124A
:08016F000189D2950DBD3CF0A1
:0B017700D007D006D005D0D0D0E03279
:03000000020016E5
:0C001600787FE4F6D8FD75811202005DD1
:100022000201A1E493A3F8E493A34003F68001F252
:1000320008DFF48029E493A3F85407240CC8C333DF
:10004200C4540F4420C8834004F456800146F6DFAE
:10005200E4800B0102040810204080900006E47E38
:10006200019360BCA3FF543F30E509541FFEE493A3
:10007200A360010ECF54C025E060A840B8E493A36A
:10008200FAE493A3F8E493A3C8C582C8CAC583CA95
:10009200F0A3C8C582C8CAC583CADFE9DEE780BE4D
:0100120000ED
:00000001FF
