:03000000020AA34E
:0C0AA300787FE4F6D8FD75810A0209D3C3
:1009D3007FE8120AAF120A138F09E4F508E50975D7
:1009E300F00A84540FF580C284D2857FE8120AAFDF
:1009F300E50975F00A84E5F0540FF580D284C285C9
:100A03007FE8120AAF0508E508C3940A40CF80C502
:060AAF00000000DFFB2245
:100A8D00E4F50AC2B77F78120AAFD2B77F10120A07
:060A9D00AF7F50020AAF1A
:100A4F00E4FD7E08C2B77F01120AAFD2B7EDC31320
:100A5F00FD30B7034305807F0B120AAFDEE6AF050B
:010A6F002264
:020A7000AE07CF
:100A72007D08C2B7EE1392B77F0C120AAFD2B7EE5F
:0A0A8200C313FE7F05120AAFDDE882
:010A8C002247
:100A1300120A8D7FCC120A707F44120A70120A8D5B
:100A23007FCC120A707FBE120A70120A4FAC0712F3
:100A33000A4FEFFEAD04EDFFAC06E412090BE4FB35
:0B0A4300FA7980783D12080012094487
:010A4E002285
:10080000EC4D6011E8497017ED33EC3304600DE4F2
:10081000FCFFFEFD22E933E8330470F80209B01250
:10082000097B58046009E4CC248150062850090251
:1008300009BA2840030209B7C0E0EB4A7044B98006
:1008400006D0E0FB0209A6EF4E701CBD8008EBFF4E
:10085000EAFEE9FD80EBE98DF0A4FEE5F00208E98F
:10086000E9CDF9EAFEEBFFEF89F0A4FCE5F0CE89D3
:10087000F0A42EFFE435F0CD89F0A42DFEE435F090
:100880008067EF4E7005BD80D780C3EF8BF0A4ACBE
:10089000F0EE8BF0A42CFCE435F0F8EF8AF0A42CF9
:1008A000E5F038FCE433CB8DF0A42CFCE5F03BF80C
:1008B000EE8AF0A42CFCE5F038F8E433CF89F0A4FC
:1008C0002CFCE5F038CF3400CE89F0A42FFFE5F002
:1008D0003EFEE433C98DF0A42EFEE5F039CD8AF05A
:1008E000A42FFFE5F03EFEE43DFD33D0E0FB5007D2
:1008F0000BBB000F0209BAEC2CFCEF33FFEE33FE0A
:06090000ED33FD02099237
:1009060075F020800E75F010800575F0087D007E6C
:10091600007F003392D530D5031209C5EC33401061
:10092600EF33FFEE33FEED33FDEC33FCD5F0ED2275
:0E093600E5F0247EA2D513CC92E7CDCEFF22B1
:10094400EDD2E7CD33EC3392D524814006E4FFFEAB
:10095400FDFC22FCE4CFCECDCC24E0501174FF800A
:10096400EDC3CC13CCCD13CDCE13CECF13CF0470A7
:07097400F030D5DE0209C5D9
:10097B00E9D2E7C933E833F892D5EDD2E7CD33ECC2
:07098B0033FC5002B2D5223B
:10099200EC30E7100FBF000C0EBE00080DBD0004C6
:1009A2000BEB6014A2D5EB13FCED92E7FD2274FF72
:1009B200FCFDFEFF22E480F8A2D574FF13FC7D80CB
:0309C200E480EFDF
:0E09C500C3E49FFFE49EFEE49DFDE49CFC2243
:00000001FF
