:03000000020003F8
:0C000300787FE4F6D8FD75811102004AF8
:0C0121000A083F065B4F666D7D077F6F8C
:1000F500E4FFEFC394FF748094805012E4FEEEC3D6
:0E01050094FF7480948050030E80F30F80E40A
:0101130022C9
:10008F00EE705BEF14B4080050549000A775F003A6
:10009F00A4C58325F0C583730200BF0200C302000D
:1000AF00CB0200CF0200D70200DB0200E30200E721
:1000BF00D2A28002C2A2D2A3D2A48022D2A2800254
:1000CF00C2A2C2A3D2A48016D2A28002C2A2D2A37D
:1000DF00C2A4800AD2A28002C2A2C2A3C2A4740880
:0600EF002DF8E6F5802269
:0D0114007D077C007F057E0012008F80FEBD
:10000F00020114E493A3F8E493A34003F68001F2F2
:10001F0008DFF48029E493A3F85407240CC8C333F2
:10002F00C4540F4420C8834004F456800146F6DFC1
:10003F00E4800B0102040810204080900121E47E2F
:10004F00019360BCA3FF543F30E509541FFEE493B6
:10005F00A360010ECF54C025E060A840B8E493A37D
:10006F00FAE493A3F8E493A3C8C582C8CAC583CAA8
:10007F00F0A3C8C582C8CAC583CADFE9DEE780BE60
:01012D0000D1
:00000001FF
