:030000000201F00A
:0C01F000787FE4F6D8FD75810F02000353
:1001D100E4FFEFC39464748094805012E4FEEEC394
:0E01E10094967480948050030E80F30F80E497
:0101EF0022ED
:0300030020A04BEF
:10000600750E00750F017590FFE50F450E603CE417
:10001600F50CF50DC3E50D9408E50C64809480504D
:10002600E8AF0DA8077401088002C333D8FCF4F5C5
:10003600901201D130A00A7590FFE4F50EF50F80FD
:0B004600C8050DE50D70CD050C80C94C
:0300510020A148A3
:10005400750E00750F017590FFE50F450E6039753B
:100064000C00750D07C3E50C6480948040EBAF0D64
:10007400A8077401088002C333D8FCF4F590120178
:10008400D130A10A7590FFE4F50EF50F80CBE50D94
:08009400150D70D1150C80CD93
:06009C0020A23120A22B7E
:0C00A200750C00750D01E50D450C602289
:1000AE001201847C017D001200F98D0E850E9012D6
:0D00BE0001D130A2E57590FFE4F50CF50DC1
:0200CB0080DBD8
:0600CD007590FF20A32541
:1000D300750C00750D01E50D450C60197590F01256
:1000E30001D175900F1201D130A3EB7590FFE4F5A8
:0500F3000CF50D80E199
:0100F80022E5
:1000F900C2D5EC30E709B2D5E4C39DFDE49CFCEE22
:1001090030E715B2D5E4C39FFFE49EFE12012FC369
:10011900E49DFDE49CFC800312012F30D507C3E464
:060129009FFFE49EFE2290
:10018400AC08AD09AE0AAF0B7810EC4D4E4F7004BD
:100194007CA57DA5C3EC13FCED13FDEE13FEEF135C
:1001A400FF5010EC64CCFCED644CFDEE644EFEEFAD
:1001B40064CEFFD8DF8C088D098E0A8F0BEE547F36
:0D01C400FE228E088F0974A5F50AF50B22A6
:10012F00BC000BBE0029EF8DF084FFADF022E4CCB4
:10013F00F875F008EF2FFFEE33FEEC33FCEE9DEC7D
:10014F00984005FCEE9DFE0FD5F0E9E4CEFD22EDC3
:10015F00F8F5F0EE8420D21CFEADF075F008EF2F0D
:10016F00FFED33FD4007985006D5F0F222C398FDFE
:05017F000FD5F0EA229B
:00000001FF
