:0300000002010CEE
:0C010C00787FE4F6D8FD75810B0200033B
:1000ED00E4FFEFC39464748094805012E4FEEEC379
:0E00FD0094967480948050030E80F30F80E47C
:01010B0022D1
:0300030020A04BEF
:10000600750A00750B017590FFE50B450A603CE427
:10001600F508F509C3E5099408E50864809480505D
:10002600E8AF09A8077401088002C333D8FCF4F5C9
:10003600901200ED30A00A7590FFE4F50AF50B80EA
:0B004600C80509E50970CD050880C958
:0300510020A148A3
:10005400750A00750B017590FFE50B450A6039754B
:100064000800750907C3E5086480948040EBAF0974
:10007400A8077401088002C333D8FCF4F590120079
:10008400ED30A10A7590FFE4F50AF50B80CBE50984
:08009400150970D1150880CD9B
:03009C0020A2257A
:10009F00750800750901E50945086019E4F5901226
:1000AF0000ED7590FF1200ED30A2EB7590FFE4F5B7
:0500BF0008F50980E1D5
:0300C40020A32551
:1000C700750800750901E509450860197590F01272
:1000D70000ED75900F1200ED30A3EB7590FFE4F57E
:0500E70008F50980E1AD
:0100EC0022F1
:00000001FF
