:030000000200906B
:0C009000787FE4F6D8FD7581140200D7DB
:0A013B000808A4C0C0A4F9C0A4A4E1
:10011C00E4FFEFC39464748094805012E4FEEEC349
:0E012C0094967480948050030E80F30F80E44C
:01013A0022A2
:1000030020A1207D07C374809480401720A114A8E9
:10001300057401088002C333D8FCF4F59012011C67
:060023001D80E220A14B4C
:100029007513007514017590FFE5144513603C754F
:100039001100751207C3E5116480948040EB20A17B
:10004900E8AF12A8077401088002C333D8FCF4F59D
:100059009012011C30A10A7590FFE4F513F5148084
:0B006900C8E512151270CE151180CAF8
:1000740020A28C7D07C374809480408320A2807466
:0C008400082DF8E6F59012011C1D80E923
:10009C00020003E493A3F8E493A34003F68001F277
:1000AC0008DFF48029E493A3F85407240CC8C33365
:1000BC00C4540F4420C8834004F456800146F6DF34
:1000CC00E4800B010204081020408090013BE47E88
:1000DC00019360BCA3FF543F30E509541FFEE49329
:1000EC00A360010ECF54C025E060A840B8E493A3F0
:1000FC00FAE493A3F8E493A3C8C582C8CAC583CA1B
:10010C00F0A3C8C582C8CAC583CADFE9DEE780BED2
:0101450000B9
:00000001FF
