:0300000002011EDC
:0C011E00787FE4F6D8FD75810A020039F4
:10006E004861707079204E6577205965617200572E
:0E007E00656C636F6D6520746F2048495400F7
:100039001200A77BFF7A00796E7F8F1200037F641D
:100049007E0012008C7BFF7A00797D7FD912000334
:100059007FF47E0112008C7F011200C27F647E0052
:0500690012008C80CEA6
:10008C007DFAD3EF9400EE9400400FDDFE7DF9DD98
:0A009C00FE7DFAEF1F70EB1E80E8F6
:0100A6002237
:10010D00C2A2C2A0D2A1D2A2AF80EF20E7F2C2A2BA
:01011D0022BF
:1000C200AE0712010DC2A2C2A0C2A18E80D2A200AE
:0900D200C2A27F017E0002008C35
:1000DB00AE0712010DC2A2D2A0C2A18E80D2A20085
:0900EB00C2A27F017E0002008C1C
:1000A7007F381200C27F0C1200C27F071200C27F86
:0B00B700011200C27F017E0002008CDD
:100003008B088A09890A1200C2AB08AA09A90A1235
:1000130000F4D3940074809480401A050AE50A70B2
:1000230002050914F91200F4FF1200DB7F647E005D
:0600330012008C80D422B3
:1000F400BB010689828A83E0225002E722BBFE020A
:09010400E32289828A83E493223C
:00000001FF
