:1009CF004265694A696E67207368696A69616E007A
:1009DF0030303A30303A303000303132333435360F
:0309EF003738395D
:090AAA0001120001130001140007
:100A10007DFAD3EF9400EE9400400FDDFE7DF9DD0A
:0A0A2000FE7DFAEF1F70EB1E80E868
:010A2A0022A9
:100A8C00C2A2C2A0D2A1D2A2AF80EF20E7F2C2A232
:010A9C002237
:100A2B00AE07120A8CC2A2C2A0C2A18E80D2A200B3
:090A3B00C2A27F017E00020A1034
:100A4400AE07120A8CC2A2D2A0C2A18E80D2A2008A
:090A5400C2A27F017E00020A101B
:1009F2007F38120A2B007F0C120A2B007F04120A86
:0E0A02002B007F01120A2B7F017E00020A10DA
:10091E008B0C8A0D890EAC07AB0CAA0DA90E120A10
:10092E005D601DAF04120A2BAB0C050EE50EAA0D71
:10093E007002050D14F9120A5DFF120A440C80D8DC
:01094E002286
:0C0A9D00E4FFE4FE0EBEC8FC0FBFC8F66C
:010AA900222A
:100A76007BFF7A0979CF7F8112091E7BFF7A09797C
:060A8600DF7FC402091E1F
:02097C00AC07C6
:10097E00ED75F00A849009E893FBED75F00A84E5B5
:10098E00F093FAAF04120A2BAF03120A44EC04FFE1
:08099E00120A2BAF02020A4409
:0C09A600AF127E00AD137C00AB147A0091
:1009B2008E0C8F0D8C0E8D0FAD037FC412097CAD92
:0D09C2000F7FC712097CAD0D7FCA02097CB2
:10094F001209F2120A76758901D2AFD2B8C2B9D2A2
:10095F00A9D2A8D288758C3C758AB0D28CE4F510D8
:0D096F00F511F512F513F5141209A680FB21
:03000B000208DF09
:1008DF00C0E0C0D00511E511700205106414451079
:1008EF007006F510F5110512E512B43C05751200EE
:1008FF000513E513B43C057513000514E514B4187E
:0F090F0003751400758C3C758AB0D0D0D0E032DF
:0300030002088C64
:10088C00C0E0C0F0C083C082C0D075D000C002C030
:10089C0003C004C005C006C007C2AF20900B120AEB
:1008AC009D20900505141209A620910B120A9D207B
:1008BC00910505131209A62092DFD2AFD007D006FE
:1008CC00D005D004D003D002D0D0D082D083D0F0C9
:0308DC00D0E03237
:03000000020800F3
:0C080000787FE4F6D8FD758114020847EB
:100A5D00BB010689828A83E0225002E722BBFE0297
:090A6D00E32289828A83E49322CA
:10080C0002094FE493A3F8E493A34003F68001F2AA
:10081C0008DFF48029E493A3F85407240CC8C333ED
:10082C00C4540F4420C8834004F456800146F6DFBC
:10083C00E4800B0102040810204080900AAAE47E98
:10084C00019360BCA3FF543F30E509541FFEE493B1
:10085C00A360010ECF54C025E060A840B8E493A378
:10086C00FAE493A3F8E493A3C8C582C8CAC583CAA3
:10087C00F0A3C8C582C8CAC583CADFE9DEE780BE5B
:010AB3000042
:00000001FF
