:030000000201AA50
:0C01AA00787FE4F6D8FD75815A0201F15F
:1002360008508040201008040201080887CFCFCF5D
:10024600CFCF87FF08100F9F9F9F9D9901FF082022
:10025600C79339393993C7FF08309999999999C342
:10026600E7FF0840019D9787979D01FF0848990081
:10027600000081C3E7FF0818999999C3E7E7C3FF10
:100286000828C79339393993C7FF08389999999936
:04029600999981FFB2
:0402E0007F647E00B9
:0B02E400EF1FAC0670011E4C70F622EC
:07029B0074502559F8E6FF3D
:0202A200AD07A6
:1002A400E4FBEBC39408748094805024EDC41313CE
:1002B40013540124FF92B4ED25E0FDC2B67F017E04
:1002C400001202E4D2B67F017E001202E40B80D257
:0B02D400D2B57F017E001202E4C2B52B
:0102DF0022FC
:100003007A017580FF755A80E4F558F55920B122BD
:1000130012029B74082559F8E6F5801202E07580F8
:10002300FF0559E55970020558C39408E558940033
:1000330040DB7A01EAC3940674809480506220B056
:100043005FE4F9E9C3947874809480505020B04DF4
:10005300E4F558F55912029BEA24FE60111460126C
:10006300146013146014240470187410800E742028
:10007300800A743080067440800274482559F8E67B
:10008300F5801202E07580FF0559E55970020558A5
:10009300C39408E558940040BC090980A60A8094DB
:1000A3007A01EAC3940474809480505420B251E4DA
:1000B300F9E9C3947874809480504220B23FE4F508
:1000C30058F55912029BEA24FE600B14600C2402BB
:1000D3007010741880067428800274382559F8E665
:1000E300F5801202E07580FF0559E5597002055845
:1000F300C39408E558940040CA090980B40A80A251
:100103007A01EAC3940A7480948040030201A43004
:10011300B3030201A4E4F9E9C39478748094805092
:100123007C20B379E4F558F55912029BEA14B4091B
:1001330000505190014475F003A4C58325F0C58395
:100143007302015F02016302016702016B02016F27
:1001530002017302017702017B02017F7408801E92
:100163007410801A74208016743080127440800ECC
:100173007418800A742880067438800274482559DC
:10018300F8E6F5801202E00559E55970020558C3F7
:100193009408E55894004091090902011A0A0201E2
:0701A300057580FF02000555
:1001B600020003E493A3F8E493A34003F68001F25C
:1001C60008DFF48029E493A3F85407240CC8C3334A
:1001D600C4540F4420C8834004F456800146F6DF19
:1001E600E4800B0102040810204080900236E47E71
:1001F600019360BCA3FF543F30E509541FFEE4930E
:10020600A360010ECF54C025E060A840B8E493A3D4
:10021600FAE493A3F8E493A3C8C582C8CAC583CAFF
:10022600F0A3C8C582C8CAC583CADFE9DEE780BEB7
:01029A000063
:00000001FF
