:03000000020003F8
:0C000300787FE4F6D8FD75811102004AF8
:0C0109000A08C0F9A4B0999282F8809016
:1000ED00E4FFFEE4FDFC0DBD00010CED64C84C7099
:0B00FD00F50FBF00010EEFF44E70E89D
:0101080022D4
:10008F0020B05AE4FAFBC3EB9406EA940050047FC5
:10009F000180027F0020B0047E0180027E00EF5EAF
:1000AF0060DE74082BF8E6F5909000007F01800267
:1000BF007F0020B0047E0180027E00EF5E6017AFEC
:1000CF008274082FF8E6F5A01200EDA3E582640A0A
:0D00DF00458370D880DA0BBB00010A80A9B0
:0100EC0022F1
:10000F0002008FE493A3F8E493A34003F68001F278
:10001F0008DFF48029E493A3F85407240CC8C333F2
:10002F00C4540F4420C8834004F456800146F6DFC1
:10003F00E4800B0102040810204080900109E47E47
:10004F00019360BCA3FF543F30E509541FFEE493B6
:10005F00A360010ECF54C025E060A840B8E493A37D
:10006F00FAE493A3F8E493A3C8C582C8CAC583CAA8
:10007F00F0A3C8C582C8CAC583CADFE9DEE780BE60
:0101150000E9
:00000001FF
