:03000000020003F8
:0C000300787FE4F6D8FD75811402004AF5
:0F0167000108000A09C0F9A4B0999282F88090AB
:10014800E4FFEFC39464748094805012E4FEEEC31D
:0E01580094647480948050030E80F30F80E452
:010166002276
:1000F30075900FAF90EF640F604A120148AF90EF15
:1001030024F9601A24FC601124FE6008147012E4C0
:10011300F508800D750801800875080280037508CD
:10012300037590F0AF90EF2490601324C0600B240C
:10013300E0600324F0227404800674088002740CC7
:050143002508F508226B
:10008F001200F3AF08C3EF940A748094805014C326
:10009F0074809480400D75A0FE74092508F8E6F56C
:1000AF008080DDE4F513F514C3E5149402E5139491
:1000BF000050CDE5144513700D75A0FDE50875F0E2
:1000CF000A842409800D75A0FEE50875F00A847472
:1000DF000925F0F8E6F5807580FF0514E51470C862
:0400EF00051380C4B1
:10000F0002008FE493A3F8E493A34003F68001F278
:10001F0008DFF48029E493A3F85407240CC8C333F2
:10002F00C4540F4420C8834004F456800146F6DFC1
:10003F00E4800B0102040810204080900167E47EE9
:10004F00019360BCA3FF543F30E509541FFEE493B6
:10005F00A360010ECF54C025E060A840B8E493A37D
:10006F00FAE493A3F8E493A3C8C582C8CAC583CAA8
:10007F00F0A3C8C582C8CAC583CADFE9DEE780BE60
:010176000088
:00000001FF
