:03000000020204F5
:0C020400787FE4F6D8FD75815102024BB2
:1002900008081E0C0C0C0C0C1E0008100F0606069D
:1002A00046667F0008201C36636363361C000830F6
:1002B00066666666663C180008407F46161E16464F
:1002C0007F00084866FFFFFF7E3C1800081866663E
:1002D000663C18183C0008281C36636363361C0013
:0A02E00008386666666666667E00F2
:0702EB0074482BF8E6F5A0B2
:1002F200E4FDFCE4FEFF0FBF00010EEF640A4E7046
:0C030200F50DBD00010CED640A4C70E725
:01030E0022CC
:1000030079017550FEE4FBFA209025855080740831
:100013002BF8E6F5A0AF507801EF08800123D8FD57
:10002300F550E4F5A00BBB00010AEB64084A70D855
:100033007901E9C394067480948040030200C020D0
:10004300917BE4F551C3E5519478748094805063B7
:10005300209160E4FAFB855080E924FE601114606E
:10006300121460131460192404701B7410800A7432
:100073002080067430800274402BF8E6F5A08006D9
:100083001202EB1202F2AF507801EF08800123D87D
:10009300FDF5501202F2E4F5A07580FF0BBB0001E1
:1000A3000AEB64084A70AF0551E4F5A07580FF05BB
:1000B300518092E4F5A07580FF090200357901E9CA
:1000C300C3940474809480506B209268E4F551C308
:1000D300E551947874809480505120924EE4FAFB59
:1000E300855080E924FE600B14600C2402700F74A9
:1000F3001880067428800274382BF8E6F5A0AF50F8
:100103007801EF08800123D8FDF5501202F2E4F5DF
:10011300A07580FF0BBB00010AEB64084A70C105A0
:1001230051E4F5A07580FF055180A4E4F5A0758026
:10013300FF09808B7901E9C3940A7480948040039A
:10014300020005309303020005E4F551C3E5519421
:10015300787480948040030201FA3093030201FA19
:10016300E4FAFB855080E914B40900505990017EEC
:1001730075F003A4C58325F0C583730201990201B9
:100183009D0201A10201A50201A90201AD0201B173
:100193000201BA0201C37408801F74108012742014
:1001A300800E7430800A7440800F741880027428A3
:1001B3002BF8E6F5A0800F74382BF8E6F5A0800342
:1001C3001202EB1202F2AF507801EF08800123D83C
:1001D300FDF5501202F2E4F5A07580FF0BBB0001A0
:1001E3000AEB64084A60030201660551E4F5A07551
:1001F30080FF055102014FE4F5A07580FF0902015C
:0102030039C1
:10021000020003E493A3F8E493A34003F68001F201
:1002200008DFF48029E493A3F85407240CC8C333EF
:10023000C4540F4420C8834004F456800146F6DFBE
:10024000E4800B0102040810204080900290E47EBC
:10025000019360BCA3FF543F30E509541FFEE493B3
:10026000A360010ECF54C025E060A840B8E493A37A
:10027000FAE493A3F8E493A3C8C582C8CAC583CAA5
:10028000F0A3C8C582C8CAC583CADFE9DEE780BE5D
:0102EA000013
:00000001FF
